:100000000C942A000C94E50C0C94180D0C944B0DD8
:100010000C9447000C9447000C9447000C94470044
:100020000C9447000C9447000C9447000C94470034
:100030000C9447000C9447000C9447000C94470024
:100040000C9447000C9447000C9447000C94470014
:100050000C94470011241FBECFE5D4E0DEBFCDBF16
:1000600011E0A0E6B0E0ECE6F7E302C005900D92E7
:10007000AC31B107D9F711E0ACE1B1E001C01D929C
:10008000A732B107E1F70E94BB160C94B41B0C9485
:100090000000EF92FF920F931F937B018C0120E0F1
:1000A00030E040E05FE40E94F50388238CF0C80153
:1000B000B70120E030E040E05FE40E94C1010E940F
:1000C00055049B01AC01205030404040504806C0D0
:1000D000C801B7010E9455049B01AC01B901CA01D6
:1000E0001F910F91FF90EF900895A0E0B0E0EBE733
:1000F000F0E00C947D1BDC012B01FA019C91923005
:1001000008F439C1EB018881823008F433C194309E
:1001100069F4843009F02FC111969C91119789815F
:10012000981709F428C1A0EEB0E025C1843009F485
:1001300021C18230A9F4923009F01DC19A01AD01AC
:1001400088E0EA010990AE01E90109929E0181501F
:10015000C1F7E201898111969C918923818308C1AD
:10016000923009F407C112962D903C901397EB0141
:100170008A819B811496AD90BD90CD90DC901797AD
:10018000EC80FD800E811F819101281B390BB90184
:1001900037FF04C066277727621B730B6032710537
:1001A0000CF061C0121613066CF537014801062EDB
:1001B00004C096948794779467940A94D2F721E0C8
:1001C00030E040E050E004C0220F331F441F551FB1
:1001D0006A95D2F721503040404050402E213F21B7
:1001E00040235123211531054105510521F021E01E
:1001F00030E040E050E079018A01E628F72808293C
:1002000019293CC0232BD1F1260E371E350146019A
:10021000062E04C096948794779467940A94D2F734
:1002200021E030E040E050E004C0220F331F441FC3
:10023000551F6A95D2F721503040404050402A2146
:100240003B214C215D21211531054105510521F04E
:1002500021E030E040E050E059016A01A628B728CB
:10026000C828D9280BC0821593052CF01C01AA249C
:10027000BB24650103C0EE24FF24870111969C91E5
:10028000D20111968C91981709F445C0992339F041
:10029000A80197012A193B094C095D0906C0A6016E
:1002A00095012E193F09400B510B57FD08C01182D3
:1002B0003382228224833583468357831DC081E0A5
:1002C00081833382228288279927DC01821B930B4A
:1002D000A40BB50B84839583A683B7830DC0220F2F
:1002E000331F441F551F24833583468357838281E0
:1002F000938101979383828324813581468157813D
:10030000DA01C9010197A109B1098F5F9F4FAF4F72
:10031000BF4328F30BC0918333822282EA0CFB1C7B
:100320000C1D1D1DE482F5820683178383E0808304
:10033000248135814681578157FF1AC0C901AA27F8
:1003400097FDA095BA2F81709070A070B0705695EF
:10035000479537952795822B932BA42BB52B848318
:100360009583A683B7838281938101969383828349
:10037000DF0101C0D201CD01CDB7DEB7E2E10C94BF
:10038000991BA0E2B0E0E7ECF1E00C94891B6983D3
:100390007A838B839C832D833E834F835887E9E048
:1003A000EE2EF12CEC0EFD1ECE010196B7010E943F
:1003B0007E058E010F5E1F4FCE010596B8010E948B
:1003C0007E058A8991E089278A8BC701B801AE0131
:1003D000475E5F4F0E9475000E94A904A096E6E068
:1003E0000C94A51BA0E2B0E0E8EFF1E00C94891BAF
:1003F00069837A838B839C832D833E834F835887C5
:10040000F9E0EF2EF12CEC0EFD1ECE010196B701A6
:100410000E947E058E010F5E1F4FCE010596B8012A
:100420000E947E05C701B801AE01475E5F4F0E9482
:1004300075000E94A904A096E6E00C94A51BA0E21A
:10044000B0E0E5E2F2E00C947D1B69837A838B8354
:100450009C832D833E834F835887CE010196BE0136
:10046000675F7F4F0E947E05CE010596BE016F5EDD
:100470007F4F0E947E059985923088F0898982306D
:10048000C8F0943019F4823051F404C0843029F457
:10049000923081F480EE90E0C6C0923049F420E0C2
:1004A0009A858A89981321E02A87CE010996BBC0D4
:1004B000823049F420E09A858A89981321E02A8BBA
:1004C000CE014196B0C02D843E844F8458886D88FB
:1004D0007E888F88988CEE24FF248701AA24BB2471
:1004E000650140E050E060E070E0E0E0F0E0C10174
:1004F00081709070892BE9F0E60CF71C081D191D1E
:100500009A01AB012A0D3B1D4C1D5D1D80E090E062
:10051000A0E0B0E0E614F7040805190520F481E036
:1005200090E0A0E0B0E0BA01A901480F591F6A1F8E
:100530007B1FAA0CBB1CCC1CDD1C97FE08C081E0F5
:1005400090E0A0E0B0E0A82AB92ACA2ADB2A3196B6
:10055000E032F10549F0660C771C881C991C569412
:10056000479437942794C3CFFA85EA892B893C892D
:100570008B859C85280F391F2E5F3F4F17C0CA01FE
:1005800081709070892B61F016950795F794E79428
:1005900080E090E0A0E0B0E8E82AF92A0A2B1B2BC3
:1005A00076956795579547952F5F3F4F77FDE7CF36
:1005B0000CC0440F551F661F771F17FD4160EE0CDE
:1005C000FF1C001F111F21503040403090E05907A0
:1005D00090E0690790E4790760F32B8F3C8FDB0193
:1005E000CA018F779070A070B07080349105A1051A
:1005F000B10561F447FD0AC0E114F10401051105DC
:1006000029F0405C5F4F6F4F7F4F40781A8EFE1786
:1006100011F081E08A8F4D8F5E8F6F8F78A383E01A
:10062000898FCE0149960E94A904A096E2E10C941C
:10063000991BA8E1B0E0EFE1F3E00C94851B69831E
:100640007A838B839C832D833E834F835887B9E0C5
:10065000EB2EF12CEC0EFD1ECE010196B7010E948F
:100660007E058E010F5E1F4FCE010596B8010E94D8
:100670007E052985223008F47EC03989323010F495
:10068000B8017CC08A859A8989278A87243011F02D
:10069000223031F4231709F06EC060EE70E06EC0B6
:1006A000343039F41D861E861F86188A1C861B86E8
:1006B00004C0323021F484E08987B7015FC02B8504
:1006C0003C858B899C89281B390B3C872B87ED84C3
:1006D000FE840F851889AD88BE88CF88D88CEA142F
:1006E000FB040C051D0540F4EE0CFF1C001F111F40
:1006F000215030403C872B8720E030E040E050E044
:1007000080E090E0A0E0B0E460E070E0EA14FB0478
:100710000C051D0540F0282B392B4A2B5B2BEA18C2
:10072000FB080C091D09B695A79597958795EE0CC2
:10073000FF1C001F111F6F5F7F4F6F31710531F775
:10074000DA01C9018F779070A070B0708034910584
:10075000A105B10561F427FD0AC0E114F10401050A
:10076000110529F0205C3F4F4F4F5F4F20782D87B8
:100770003E874F87588BBE01675F7F4FCB010E943A
:10078000A9046896EAE00C94A11BA8E1B0E0EBECA8
:10079000F3E00C94891B69837A838B839C832D837C
:1007A0003E834F83588789E0E82EF12CEC0EFD1E26
:1007B000CE010196B7010E947E058E010F5E1F4F8C
:1007C000CE010596B8010E947E058985823040F0F1
:1007D0008989823028F0C701B8010E94F60501C05E
:1007E0008FEF6896E6E00C94A51BA8E1B0E0EBEF74
:1007F000F3E00C94891B69837A838B839C832D831C
:100800003E834F83588789E0E82EF12CEC0EFD1EC5
:10081000CE010196B7010E947E058E010F5E1F4F2B
:10082000CE010596B8010E947E058985823040F090
:100830008989823028F0C701B8010E94F60501C0FD
:100840008FEF6896E6E00C94A51BA8E1B0E0EBE220
:10085000F4E00C94891B69837A838B839C832D83BA
:100860003E834F83588789E0E82EF12CEC0EFD1E65
:10087000CE010196B7010E947E058E010F5E1F4FCB
:10088000CE010596B8010E947E058985823040F030
:100890008989823028F0C701B8010E94F60501C09D
:1008A00081E06896E6E00C94A51BACE0B0E0EBE5D7
:1008B000F4E00C948D1B69837A838B839C83CE0137
:1008C0000196BE016B5F7F4F0E947E058D81823055
:1008D00061F1823050F1843021F48E81882351F10E
:1008E0002EC02F81388537FD20C06E812F31310514
:1008F0001CF06623F9F023C08EE190E0821B930B7D
:1009000029853A854B855C8504C056954795379572
:1009100027958A95D2F76623B1F05095409530958A
:1009200021953F4F4F4F5F4F0EC020E030E040E039
:1009300050E009C02FEF3FEF4FEF5FE704C020E02A
:1009400030E040E050E8B901CA012C96E2E00C9496
:10095000A91BDF92EF92FF920F931F93FC01E4809B
:10096000F58006811781D1808081823048F480E053
:1009700090E0A0E1B0E0E82AF92A0A2B1B2BA5C0E1
:10098000843009F49FC0823021F4EE24FF248701D3
:1009900005C0E114F1040105110519F4E0E0F0E0EF
:1009A00096C0628173819FEF623879070CF05BC05B
:1009B00022E83FEF261B370B2A3131052CF020E0CF
:1009C00030E040E050E02AC0B801A701022E04C088
:1009D00076956795579547950A94D2F781E090E010
:1009E000A0E0B0E004C0880F991FAA1FBB1F2A9582
:1009F000D2F70197A109B1098E219F21A023B1232C
:100A00000097A105B10521F081E090E0A0E0B0E001
:100A10009A01AB01282B392B4A2B5B2BDA01C90138
:100A20008F779070A070B07080349105A105B105EA
:100A300039F427FF09C0205C3F4F4F4F5F4F04C080
:100A4000215C3F4F4F4F5F4FE0E0F0E02030A0E0EF
:100A50003A07A0E04A07A0E45A0710F0E1E0F0E00E
:100A600079018A0127C06038710564F5FB01E158FE
:100A7000FF4FD801C7018F779070A070B07080349D
:100A80009105A105B10539F4E7FE0DC080E490E0C1
:100A9000A0E0B0E004C08FE390E0A0E0B0E0E80E9A
:100AA000F91E0A1F1B1F17FF05C016950795F7941F
:100AB000E794319687E016950795F794E7948A9521
:100AC000D1F705C0EE24FF248701EFEFF0E06E2F91
:100AD000679566276795902F9F77D794DD24D794E5
:100AE0008E2F8695492F462B582F5D29B701CA01B5
:100AF0001F910F91FF90EF90DF900895FC01DB01B3
:100B0000408151812281622F6F7770E0221F22275E
:100B1000221F9381892F880F822B282F30E0991F65
:100B20009927991F11969C93119721153105A9F5C5
:100B3000411551056105710511F482E037C082E865
:100B40009FEF13969C938E9312979A01AB0167E0E7
:100B5000220F331F441F551F6A95D1F783E08C93F2
:100B60000DC0220F331F441F551F12968D919C916B
:100B70001397019713969C938E931297203080E0E1
:100B8000380780E0480780E4580758F314962D93FF
:100B90003D934D935C93179708952F3F310579F45A
:100BA000411551056105710519F484E08C93089590
:100BB00064FF03C081E08C9312C01C9210C02F57B9
:100BC000304013963C932E93129783E08C9387E0EA
:100BD000440F551F661F771F8A95D1F770641496CE
:100BE0004D935D936D937C93179708951F93DC014C
:100BF000FB019C91923008F447C08081823008F458
:100C000043C0943051F411961C91843099F5818140
:100C1000682F70E0611B71093FC0843021F0923071
:100C200031F48230B9F18181882389F12DC0119688
:100C30001C9111978230F1F081811817D9F4129626
:100C40002D913C911397828193818217930794F0A1
:100C500028173907BCF014968D919D910D90BC9189
:100C6000A02D2481358146815781281739074A07ED
:100C70005B0718F4112341F00AC082179307A407F9
:100C8000B50740F4112319F061E070E005C06FEF83
:100C90007FEF02C060E070E0CB011F910895DF9309
:100CA000CF93CDB7DEB7A7E2B0E0E7E2F0E0808116
:100CB0008F778C93A7E2B0E0E7E2F0E08081806478
:100CC0008C93A7E2B0E0E7E2F0E080818F7D8C9327
:100CD000A6E2B0E0E6E2F0E0808180688C93A6E2D4
:100CE000B0E0E6E2F0E080818F7D8C93A6E2B0E098
:100CF000E6E2F0E08081877F8C93A6E2B0E0E6E256
:100D0000F0E080818B7F8C93A6E2B0E0E6E2F0E039
:100D100080818D7F8C93A6E2B0E0E6E2F0E08081F6
:100D20008E7F8C93CF91DF910895DF93CF9300D086
:100D300000D00F92CDB7DEB78D83A7E2B0E0E7E237
:100D4000F0E08081807E8C93A7E2B0E0E7E2F0E003
:100D500090818D81892B8C93A6E2B0E0E6E2F0E0F1
:100D6000808180648C93E6E2F0E0808182958F70D0
:100D7000882F90E0817090700097A9F3A6E2B0E010
:100D8000E6E2F0E0808180618C93E4E2F0E0808133
:100D90008C83E5E2F0E080818B838B81882F90E06B
:100DA000382F22278C81882F90E0822B932B9A83D7
:100DB000898389819A810F900F900F900F900F90E7
:100DC000CF91DF910895DF93CF93CDB7DEB783E066
:100DD00064E041E00E943507CF91DF910895DF93F1
:100DE000CF93CDB7DEB783E064E041E00E945708BF
:100DF000CF91DF910895DF93CF93CDB7DEB783E036
:100E000064E040E00E945708CF91DF910895DF939E
:100E1000CF93CDB7DEB783E064E00E947909CF912C
:100E2000DF910895DF93CF93CDB7DEB7EAE3F0E02B
:100E30008EEF8083E7E3F0E01082E4E3F0E01082DD
:100E4000E1E3F0E080EF8083EBE3F0E01082E8E3A1
:100E5000F0E084E08083E5E3F0E01082E2E3F0E09C
:100E60008CE08083CF91DF910895DF93CF93CDB74E
:100E7000DEB72D970FB6F894DEBF0FBECDBF8983C6
:100E80006A834B838981843008F008C18A81883065
:100E900008F004C18B81823008F000C18981282FBD
:100EA00030E03D872C878C859D858130910509F444
:100EB0004FC02C853D85223031052CF48C859D85D5
:100EC000009771F0EBC02C853D852230310509F487
:100ED00077C08C859D858330910509F4A9C0DEC05B
:100EE0008B81282F30E03B872A878A859B85009756
:100EF000D1F02A853B852130310509F0CFC0AAE326
:100F0000B0E0EAE3F0E08081482F8A81282F30E0CA
:100F100081E090E0022E02C0880F991F0A94E2F748
:100F2000842B8C93BBC0AAE3B0E0EAE3F0E08081BD
:100F3000482F8A81282F30E081E090E0022E02C005
:100F4000880F991F0A94E2F7809584238C93A6C09A
:100F50008B81282F30E039872887888599850097ED
:100F6000D1F0288539852130310509F097C0A7E3F4
:100F7000B0E0E7E3F0E08081482F8A81282F30E05D
:100F800081E090E0022E02C0880F991F0A94E2F7D8
:100F9000842B8C9383C0A7E3B0E0E7E3F0E080818B
:100FA000482F8A81282F30E081E090E0022E02C095
:100FB000880F991F0A94E2F7809584238C936EC062
:100FC0008B81282F30E03F832E838E819F81009775
:100FD000D1F02E813F812130310509F05FC0A4E3BB
:100FE000B0E0E4E3F0E08081482F8A81282F30E0F0
:100FF00081E090E0022E02C0880F991F0A94E2F768
:10100000842B8C934BC0A4E3B0E0E4E3F0E0808158
:10101000482F8A81282F30E081E090E0022E02C024
:10102000880F991F0A94E2F7809584238C9336C029
:101030008B81282F30E03D832C838C819D8100970C
:10104000C9F02C813D812130310541F5A1E3B0E0AB
:10105000E1E3F0E08081482F8A81282F30E081E0B1
:1010600090E0022E02C0880F991F0A94E2F7842BA9
:101070008C9314C0A1E3B0E0E1E3F0E08081482F5D
:101080008A81282F30E081E090E0022E02C0880F94
:10109000991F0A94E2F7809584238C932D960FB6BE
:1010A000F894DEBF0FBECDBFCF91DF910895DF93DF
:1010B000CF93CDB7DEB72D970FB6F894DEBF0FBE36
:1010C000CDBF89836A834B838981843008F008C14E
:1010D0008A81883008F004C18B81823008F000C119
:1010E0008981282F30E03D872C878C859D85813034
:1010F000910509F44FC02C853D85223031052CF433
:101100008C859D85009771F0EBC02C853D85223044
:10111000310509F477C08C859D858330910509F4EC
:10112000A9C0DEC08B81282F30E03B872A878A85C3
:101130009B850097D1F02A853B852130310509F048
:10114000CFC0ABE3B0E0EBE3F0E08081482F8A81D1
:10115000282F30E081E090E0022E02C0880F991F16
:101160000A94E2F7842B8C93BBC0ABE3B0E0EBE3D3
:10117000F0E08081482F8A81282F30E081E090E0E4
:10118000022E02C0880F991F0A94E2F780958423EB
:101190008C93A6C08B81282F30E0398728878885DB
:1011A00099850097D1F0288539852130310509F0DE
:1011B00097C0A8E3B0E0E8E3F0E08081482F8A819F
:1011C000282F30E081E090E0022E02C0880F991FA6
:1011D0000A94E2F7842B8C9383C0A8E3B0E0E8E3A1
:1011E000F0E08081482F8A81282F30E081E090E074
:1011F000022E02C0880F991F0A94E2F7809584237B
:101200008C936EC08B81282F30E03F832E838E819C
:101210009F810097D1F02E813F812130310509F067
:101220005FC0A5E3B0E0E5E3F0E08081482F8A816C
:10123000282F30E081E090E0022E02C0880F991F35
:101240000A94E2F7842B8C934BC0A5E3B0E0E5E36E
:10125000F0E08081482F8A81282F30E081E090E003
:10126000022E02C0880F991F0A94E2F7809584230A
:101270008C9336C08B81282F30E03D832C838C816A
:101280009D810097C9F02C813D812130310541F5C8
:10129000A2E3B0E0E2E3F0E08081482F8A81282FCA
:1012A00030E081E090E0022E02C0880F991F0A947E
:1012B000E2F7842B8C9314C0A2E3B0E0E2E3F0E009
:1012C0008081482F8A81282F30E081E090E0022E33
:1012D00002C0880F991F0A94E2F7809584238C93AB
:1012E0002D960FB6F894DEBF0FBECDBFCF91DF9124
:1012F0000895DF93CF9300D000D0CDB7DEB78983B8
:101300006A838981843008F072C08A81883008F04D
:101310006EC08981282F30E03C832B838B819C8198
:101320008130910549F12B813C81223031052CF42B
:101330008B819C81009761F05AC02B813C812230C7
:10134000310571F18B819C8183309105E9F14FC0AA
:10135000ABE3B0E0EBE3F0E08081482F8A81282FF7
:1013600030E081E090E0022E02C0880F991F0A94BD
:10137000E2F784278C933BC0A8E3B0E0E8E3F0E019
:101380008081482F8A81282F30E081E090E0022E72
:1013900002C0880F991F0A94E2F784278C9327C014
:1013A000A5E3B0E0E5E3F0E08081482F8A81282FB3
:1013B00030E081E090E0022E02C0880F991F0A946D
:1013C000E2F784278C9313C0A2E3B0E0E2E3F0E0FD
:1013D0008081482F8A81282F30E081E090E0022E22
:1013E00002C0880F991F0A94E2F784278C930F900C
:1013F0000F900F900F90CF91DF910895DF93CF93CF
:1014000000D000D0CDB7DEB789836A83898184306C
:1014100008F072C08A81883008F06EC08981282F58
:1014200030E03C832B838B819C818130910549F195
:101430002B813C81223031052CF48B819C810097DB
:1014400061F05AC02B813C812230310571F18B81D2
:101450009C8183309105E9F14FC0AAE3B0E0EAE353
:10146000F0E08081482F8A81282F30E081E090E0F1
:10147000022E02C0880F991F0A94E2F784278C93EA
:101480003BC0A7E3B0E0E7E3F0E08081482F8A812A
:10149000282F30E081E090E0022E02C0880F991FD3
:1014A0000A94E2F784278C9327C0A4E3B0E0E4E336
:1014B000F0E08081482F8A81282F30E081E090E0A1
:1014C000022E02C0880F991F0A94E2F784278C939A
:1014D00013C0A1E3B0E0E1E3F0E08081482F8A810E
:1014E000282F30E081E090E0022E02C0880F991F83
:1014F0000A94E2F784278C930F900F900F900F902F
:10150000CF91DF910895DF93CF9300D000D0CDB776
:10151000DEB789836A838981843090F58981282F99
:1015200030E03C832B838B819C8181309105D1F00D
:101530002B813C81223031052CF48B819C810097DA
:1015400061F01EC02B813C812230310581F08B81FE
:101550009C818330910581F013C0EBE3F0E08A8138
:1015600080830EC0E8E3F0E08A81808309C0E5E370
:10157000F0E08A81808304C0E2E3F0E08A81808326
:101580000F900F900F900F90CF91DF910895DF9300
:10159000CF9300D000D0CDB7DEB789836A8389812D
:1015A000843090F58981282F30E03C832B838B8118
:1015B0009C8181309105D1F02B813C812230310515
:1015C0002CF48B819C81009761F01EC02B813C81A3
:1015D0002230310581F08B819C818330910581F02F
:1015E00013C0EAE3F0E08A8180830EC0E7E3F0E015
:1015F0008A81808309C0E4E3F0E08A81808304C0AB
:10160000E1E3F0E08A8180830F900F900F900F90BC
:10161000CF91DF910895DF93CF9300D000D00F9248
:10162000CDB7DEB78A836B838A81843008F06BC0C4
:101630008B81883008F067C08A81282F30E03D8395
:101640002C834C815D814130510541F18C819D811C
:101650008230910534F42C813D812115310561F0F2
:1016600052C04C815D814230510551F18C819D8188
:1016700083309105B9F147C0E9E3F0E08081282F7C
:1016800030E08B81882F90E0A90102C055954795E5
:101690008A95E2F7CA018170898335C0E6E3F0E0FC
:1016A0008081282F30E08B81882F90E0A90102C033
:1016B000559547958A95E2F7CA018170898323C0C1
:1016C000E3E3F0E08081282F30E08B81882F90E0E9
:1016D000A90102C0559547958A95E2F7CA01817024
:1016E000898311C0E0E3F0E08081282F30E08B8116
:1016F000882F90E0A90102C0559547958A95E2F799
:10170000CA018170898389810F900F900F900F908B
:101710000F90CF91DF910895DF93CF9300D000D049
:1017200000D0CDB7DEB789836A838981833008F022
:101730005EC08A81843008F05AC08981282F30E049
:101740003E832D838D819E8181309105D1F02D8145
:101750003E812230310561F18D819E81009709F033
:1017600046C0A5E5B0E0E5E5F0E080818C7F8C9394
:10177000A5E5B0E0E5E5F0E090818A81892B8C93C6
:1017800036C0A5E5B0E0E5E5F0E08081837F8C938D
:10179000A5E5B0E0E5E5F0E08081282F8A81882F7B
:1017A00090E0880F991F880F991F822B8C931FC080
:1017B0008A81282F30E03C832B838B819C8182306F
:1017C000910531F02B813C812330310549F00FC068
:1017D000A4E5B0E0E4E5F0E080818F7B8C9307C066
:1017E000A4E5B0E0E4E5F0E0808180648C93269687
:1017F0000FB6F894DEBF0FBECDBFCF91DF91089535
:10180000DF93CF9300D00F92CDB7DEB78983898164
:10181000282F30E03B832A838A819B818130910588
:1018200089F02A813B8122303105A1F08A819B8198
:101830000097B9F4ABE5B0E0EBE5F0E080818064BF
:101840008C930FC0ABE5B0E0EBE5F0E08081806801
:101850008C9307C0ABE5B0E0EBE5F0E080818062FF
:101860008C930F900F900F90CF91DF910895DF939D
:10187000CF9300D00F92CDB7DEB789838981282F0F
:1018800030E03B832A838A819B818130910589F0F6
:101890002A813B8122303105A1F08A819B8100970A
:1018A000B9F4ABE5B0E0EBE5F0E080818F7B8C93A1
:1018B0000FC0ABE5B0E0EBE5F0E080818F778C9373
:1018C00007C0ABE5B0E0EBE5F0E080818F7D8C9365
:1018D0000F900F900F90CF91DF910895DF93CF93EA
:1018E00000D00F92CDB7DEB789838981282F30E0F1
:1018F0003B832A838A819B818130910589F02A81EB
:101900003B8122303105A1F08A819B810097B9F497
:10191000AAE5B0E0EAE5F0E0808180648C930FC036
:10192000AAE5B0E0EAE5F0E0808180688C9307C02A
:10193000AAE5B0E0EAE5F0E0808180628C930F9048
:101940000F900F90CF91DF910895DF93CF9300D048
:1019500000D00F92CDB7DEB789837B836A838981FC
:10196000833058F58A819B81009739F18981282F2E
:1019700030E03D832C838C819D818130910581F005
:101980002C813D812230310591F08C819D81009721
:10199000A1F48A819B8190931D0180931C010DC04D
:1019A0008A819B8190931F0180931E0106C08A81CA
:1019B0009B8190932101809320010F900F900F90B5
:1019C0000F900F90CF91DF9108951F920F920FB655
:1019D0000F9211242F933F934F935F936F937F93B5
:1019E0008F939F93AF93BF93EF93FF93DF93CF9327
:1019F000CDB7DEB780911C0190911D01009729F0B1
:101A0000E0911C01F0911D010995CF91DF91FF91AB
:101A1000EF91BF91AF919F918F917F916F915F9166
:101A20004F913F912F910F900FBE0F901F901895DF
:101A30001F920F920FB60F9211242F933F934F9343
:101A40005F936F937F938F939F93AF93BF93EF9326
:101A5000FF93DF93CF93CDB7DEB780911E019091B6
:101A60001F01009729F0E0911E01F0911F010995D7
:101A7000CF91DF91FF91EF91BF91AF919F918F91A6
:101A80007F916F915F914F913F912F910F900FBE7A
:101A90000F901F9018951F920F920FB60F9211245E
:101AA0002F933F934F935F936F937F938F939F9366
:101AB000AF93BF93EF93FF93DF93CF93CDB7DEB791
:101AC0008091200190912101009729F0E09120015F
:101AD000F09121010995CF91DF91FF91EF91BF9195
:101AE000AF919F918F917F916F915F914F913F91B6
:101AF0002F910F900FBE0F901F901895DF93CF93EB
:101B0000CDB7DEB70E944F06CF91DF910895DF93E6
:101B1000CF9300D000D0CDB7DEB780E00E9495060D
:101B20009C838B832B813C8188E691E0AC01249FD0
:101B3000C001259F900D349F900D11242FEF33E0AD
:101B4000B9010E94471BCB0188969A8389838981BA
:101B50009A810F900F900F900F90CF91DF91089581
:101B6000DF93CF93CDB7DEB7AFE5B0E0EFE5F0E0C0
:101B7000808180688C93CF91DF910895DF93CF931C
:101B8000CDB7DEB7AFE5B0E0EFE5F0E080818F776D
:101B90008C93CF91DF910895DF93CF93CDB7DEB7CC
:101BA0006C970FB6F894DEBF0FBECDBF80E063E048
:101BB00041E00E94570880E090E0A0E0B0E4898F07
:101BC0009A8FAB8FBC8F698D7A8D8B8D9C8D20E029
:101BD00030E04AE755E40E941F02DC01CB018D8B07
:101BE0009E8BAF8BB88F6D897E898F89988D20E011
:101BF00030E040E85FE30E94250488232CF481E074
:101C000090E09C8B8B8B3FC06D897E898F89988DEE
:101C100020E03FEF4FE757E40E94C50318164CF54C
:101C2000698D7A8D8B8D9C8D20E030E040E251E40F
:101C30000E941F02DC01CB01BC01CD010E944900C2
:101C4000DC01CB019C8B8B8B0FC080E991E09A8BE0
:101C5000898B89899A890197F1F79A8B898B8B896E
:101C60009C8901979C8B8B8B8B899C89009769F74A
:101C700014C06D897E898F89988D0E944900DC018E
:101C8000CB019C8B8B8B8B899C89988B8F878F85C5
:101C900098890197F1F7988B8F8780E063E040E0A7
:101CA0000E94570880E090E0A0E0B0E48B879C871A
:101CB000AD87BE876B857C858D859E8520E030E075
:101CC0004AE755E40E941F02DC01CB018F8398870D
:101CD000A987BA876F81788589859A8520E030E069
:101CE00040E85FE30E94250488232CF481E090E023
:101CF0009E838D833FC06F81788589859A8520E09A
:101D00003FEF4FE757E40E94C50318164CF56B856B
:101D10007C858D859E8520E030E040E251E40E9484
:101D20001F02DC01CB01BC01CD010E944900DC0196
:101D3000CB019E838D830FC080E991E09C838B83D0
:101D40008B819C810197F1F79C838B838D819E8190
:101D500001979E838D838D819E81009769F714C0C2
:101D60006F81788589859A850E944900DC01CB01C5
:101D70009E838D838D819E819A83898389819A81B7
:101D80000197F1F79A8389836C960FB6F894DEBFBA
:101D90000FBECDBFCF91DF910895DF93CF930F9208
:101DA000CDB7DEB789838981982F917080E064E098
:101DB000492F0E94570889818695982F917080E05D
:101DC00065E0492F0E945708898186958695982F4E
:101DD000917080E066E0492F0E94570889818695BE
:101DE00086958695982F917080E067E0492F0E9434
:101DF00057080E94CC0D0F90CF91DF9108950F935B
:101E00001F93DF93CF93CDB7DEB7CC56D0400FB63C
:101E1000F894DEBF0FBECDBFFE01E759FF4F80E053
:101E200090E0A0E2B2E480839183A283B3838E0129
:101E30000B591F4FFE01E759FF4F6081718182816D
:101E4000938120E030E04AE755E40E941F02DC0164
:101E5000CB01F80180839183A283B383FE01EB5908
:101E6000FF4F608171818281938120E030E040E802
:101E70005FE30E942504882344F4FE01ED59FF4FDF
:101E800081E090E09183808364C0FE01EB59FF4FB5
:101E9000608171818281938120E03FEF4FE757E4B9
:101EA0000E94C50318160CF043C0FE01E759FF4F0E
:101EB000608171818281938120E030E040E251E4D1
:101EC0000E941F02DC01CB018E010D591F4FBC0186
:101ED000CD010E944900DC01CB01F8019183808390
:101EE0001FC0FE01EF59FF4F80E991E0918380838D
:101EF000FE01EF59FF4F808191810197F1F7FE01BB
:101F0000EF59FF4F91838083DE01AD59BF4FFE0132
:101F1000ED59FF4F80819181019711969C938E938B
:101F2000FE01ED59FF4F808191810097D1F627C0C6
:101F30008E010D591F4FFE01EB59FF4F60817181DA
:101F4000828193810E944900DC01CB01F8019183D9
:101F50008083DE01A15ABF4FFE01ED59FF4F808102
:101F600091818D939C93FE01E15AFF4F8081918175
:101F70000197F1F7FE01E15AFF4F9183808380E0E2
:101F800061E041E00E94350780E062E041E00E94AC
:101F9000350780E063E041E00E94350780E064E0BF
:101FA00041E00E94350780E065E041E00E9435078E
:101FB00080E066E041E00E94350780E067E041E0B4
:101FC0000E94350780E061E040E00E94570880E011
:101FD00062E040E00E94570883E00E94CD0EFE01BF
:101FE000E55AFF4F80E090E0A0EAB0E4808391835F
:101FF000A283B3838E01095A1F4FFE01E55AFF4F9A
:10200000608171818281938120E030E04AE755E46C
:102010000E941F02DC01CB01F80180839183A2831F
:10202000B383FE01E95AFF4F608171818281938100
:1020300020E030E040E85FE30E942504882344F478
:10204000FE01EB5AFF4F81E090E09183808364C0F2
:10205000FE01E95AFF4F608171818281938120E006
:102060003FEF4FE757E40E94C50318160CF043C03A
:10207000FE01E55AFF4F608171818281938120E0EA
:1020800030E040E251E40E941F02DC01CB018E01EE
:102090000B5A1F4FBC01CD010E944900DC01CB014E
:1020A000F801918380831FC0FE01ED5AFF4F80E944
:1020B00091E091838083FE01ED5AFF4F80819181F1
:1020C0000197F1F7FE01ED5AFF4F91838083DE0106
:1020D000AB5ABF4FFE01EB5AFF4F808191810197B0
:1020E00011969C938E93FE01EB5AFF4F8081918154
:1020F0000097D1F627C08E010B5A1F4FFE01E95AF7
:10210000FF4F60817181828193810E944900DC01CF
:10211000CB01F80191838083DE01AF5ABF4FFE01EE
:10212000EB5AFF4F808191818D939C93FE01EF5A72
:10213000FF4F808191810197F1F7FE01EF5AFF4F28
:102140009183808383E00E94CD0EFE01E35BFF4F0D
:1021500080E090E0A6E1B3E480839183A283B3831F
:102160008E01075B1F4FFE01E35BFF4F60817181B2
:10217000828193812BEA3AEA4AEA50E40E941F02E4
:10218000DC01CB01F80180839183A283B383FE013C
:10219000E75BFF4F608171818281938120E030E0B5
:1021A00040E85FE30E942504882334F4FE01E85BE5
:1021B000FF4F81E08083B4C0FE01E75BFF4F608189
:1021C00071818281938120E030E04FE753E40E94E7
:1021D000C50318160CF094C0FE01E35BFF4F60814D
:1021E00071818281938120E030E04AE754E40E94CB
:1021F0001903DC01CB01FE01EC5BFF4F808391836F
:10220000A283B3838E01005C1F4FFE01EC5BFF4F86
:10221000608171818281938120E030E04AE755E45A
:102220000E941F02DC01CB01F80180839183A2830D
:10223000B383FE01E05CFF4F6081718182819381F5
:1022400020E030E040E85FE30E94250488232CF47E
:1022500081E090E09FAF8EAF48C0FE01E05CFF4F91
:10226000608171818281938120E03FEF4FE757E4E5
:102270000E94C503181664F5FE01EC5BFF4F6081F8
:1022800071818281938120E030E040E251E40E943C
:102290001F02DC01CB01BC01CD010E944900DC0121
:1022A000CB019FAF8EAF0FC080E991E09DAF8CAFA7
:1022B0008CAD9DAD0197F1F79DAF8CAF8EAD9FAD0D
:1022C00001979FAF8EAF8EAD9FAD009769F731C07C
:1022D000FE01E05CFF4F60817181828193810E94E9
:1022E0004900DC01CB019FAF8EAF8EAD9FAD9BAFA0
:1022F0008AAF8AAD9BAD0197F1F79BAF8AAF19C04A
:102300008E01085B1F4FFE01E75BFF4F608171810B
:10231000828193810E944900DC01CB01F801808316
:10232000FE01E85BFF4F808189AF89AD8A95F1F7A7
:1023300089AF83E00E94CD0E82E00E94CD0E88E23C
:102340000E947F1380E090E0A0E8BFE38DAB9EABDE
:10235000AFABB8AF6DA97EA98FA998AD20E030E0F2
:102360004AE755E40E941F02DC01CB0189AB9AAB1E
:10237000ABABBCAB69A97AA98BA99CA920E030E0E2
:1023800040E85FE30E94250488232CF481E090E07C
:1023900098AB8FA73FC069A97AA98BA99CA920E017
:1023A0003FEF4FE757E40E94C50318164CF56DA99F
:1023B0007EA98FA998AD20E030E040E251E40E9470
:1023C0001F02DC01CB01BC01CD010E944900DC01F0
:1023D000CB0198AB8FA70FC080E991E09EA78DA796
:1023E0008DA59EA50197F1F79EA78DA78FA598A90A
:1023F000019798AB8FA78FA598A9009769F714C08C
:1024000069A97AA98BA99CA90E944900DC01CB018A
:1024100098AB8FA78FA598A99CA78BA78BA59CA5E8
:102420000197F1F79CA78BA78CE00E947F1380E0B7
:1024300090E0A0E8BFE38FA398A7A9A7BAA76FA1D0
:1024400078A589A59AA520E030E04AE755E40E94E6
:102450001F02DC01CB018BA39CA3ADA3BEA36BA188
:102460007CA18DA19EA120E030E040E85FE30E94C6
:10247000250488232CF481E090E09AA389A33FC02F
:102480006BA17CA18DA19EA120E03FEF4FE757E417
:102490000E94C50318164CF56FA178A589A59AA5C9
:1024A00020E030E040E251E40E941F02DC01CB0159
:1024B000BC01CD010E944900DC01CB019AA389A394
:1024C0000FC080E991E098A38F8F8F8D98A101971D
:1024D000F1F798A38F8F89A19AA101979AA389A355
:1024E00089A19AA1009769F714C06BA17CA18DA165
:1024F0009EA10E944900DC01CB019AA389A389A176
:102500009AA19E8F8D8F8D8D9E8D0197F1F79E8F55
:102510008D8F81E00E947F1380E090E0A0E0B0E426
:10252000898F9A8FAB8FBC8F698D7A8D8B8D9C8DA7
:1025300020E030E04AE755E40E941F02DC01CB01B5
:102540008D8B9E8BAF8BB88F6D897E898F89988D8F
:1025500020E030E040E85FE30E94250488232CF46B
:1025600081E090E09C8B8B8B3FC06D897E898F8949
:10257000988D20E03FEF4FE757E40E94C5031816FF
:102580004CF5698D7A8D8B8D9C8D20E030E040E29A
:1025900051E40E941F02DC01CB01BC01CD010E946D
:1025A0004900DC01CB019C8B8B8B0FC080E991E053
:1025B0009A8B898B89899A890197F1F79A8B898BF4
:1025C0008B899C8901979C8B8B8B8B899C8900972D
:1025D00069F714C06D897E898F89988D0E944900A2
:1025E000DC01CB019C8B8B8B8B899C89988B8F8793
:1025F0008F8598890197F1F7988B8F8786E00E94E5
:102600007F1380E090E0A0E8BFE38B879C87AD87D5
:10261000BE876B857C858D859E8520E030E04AE70E
:1026200055E40E941F02DC01CB018F839887A987A4
:10263000BA876F81788589859A8520E030E040E807
:102640005FE30E94250488232CF481E090E09E83C0
:102650008D833FC06F81788589859A8520E03FEF23
:102660004FE757E40E94C50318164CF56B857C852F
:102670008D859E8520E030E040E251E40E941F02FB
:10268000DC01CB01BC01CD010E944900DC01CB0182
:102690009E838D830FC080E991E09C838B838B8127
:1026A0009C810197F1F79C838B838D819E8101979B
:1026B0009E838D838D819E81009769F714C06F8101
:1026C000788589859A850E944900DC01CB019E832B
:1026D0008D838D819E819A83898389819A810197D7
:1026E000F1F79A838983C459DF4F0FB6F894DEBFA0
:1026F0000FBECDBFCF91DF911F910F910895DF9352
:10270000CF930F92CDB7DEB7898380E061E040E0E0
:102710000E94570880E062E040E00E9457088981EB
:1027200082958F700E94CD0E89818F700E94CD0E90
:102730000F90CF91DF910895DF93CF930F92CDB794
:10274000DEB7898380E061E041E00E94570880E0C5
:1027500062E040E00E945708898182958F700E9454
:10276000CD0E89818F700E94CD0E0F90CF91DF9199
:102770000895DF93CF93CDB7DEB72E970FB6F894B9
:10278000DEBF0FBECDBF81E00E947F1380E090E0EE
:10279000A0E0B0E48B879C87AD87BE876B857C8586
:1027A0008D859E8520E030E04AE755E40E941F02B7
:1027B000DC01CB018F839887A987BA876F817885E1
:1027C00089859A8520E030E040E85FE30E94250497
:1027D00088232CF481E090E09E838D833FC06F813D
:1027E000788589859A8520E03FEF4FE757E40E947E
:1027F000C50318164CF56B857C858D859E8520E07C
:1028000030E040E251E40E941F02DC01CB01BC0138
:10281000CD010E944900DC01CB019E838D830FC056
:1028200080E991E09C838B838B819C810197F1F7F8
:102830009C838B838D819E8101979E838D838D8167
:102840009E81009769F714C06F81788589859A8584
:102850000E944900DC01CB019E838D838D819E8186
:102860009A83898389819A810197F1F79A83898371
:102870002E960FB6F894DEBF0FBECDBFCF91DF917D
:102880000895DF93CF9300D00F92CDB7DEB79B832F
:102890008A8319820EC08981282F30E08A819B812A
:1028A000FC01E20FF31F80810E949C1389818F5FDE
:1028B00089838981282F30E08A819B81FC01E20F86
:1028C000F31F8081882339F70F900F900F90CF91DD
:1028D000DF9108950F931F93DF93CF93CDB7DEB7AA
:1028E0002F970FB6F894DEBF0FBECDBF6C877D87E4
:1028F0008E879F8719828C859D85AE85BF850097C1
:10290000A105B105A1F580E30E949C134FC0898108
:10291000082F112707FD10958C859D85AE85BF85F5
:102920002AE030E040E050E0BC01CD010E945B1B9A
:10293000DC01CB01282F205DCE010296FC01E00FC7
:10294000F11F20838C859D85AE85BF852AE030E010
:1029500040E050E0BC01CD010E945B1BDA01C901DF
:102960008C879D87AE87BF8789818F5F89838C85A0
:102970009D85AE85BF850097A105B10541F689818A
:102980008150898310C08981282F332727FD3095F6
:10299000CE010296FC01E20FF31F80810E949C137E
:1029A000898181508983898188236CF72F960FB69E
:1029B000F894DEBF0FBECDBFCF91DF911F910F9175
:1029C0000895DF93CF9300D000D00F92CDB7DEB73C
:1029D0008A836B8319828A81282F30E03D832C8380
:1029E0008C819D818130910531F02C813D81223097
:1029F000310521F006C08B81898303C08B81805C07
:102A00008983898180580E947F130F900F900F90C7
:102A10000F900F90CF91DF910895DF93CF93CDB7B3
:102A2000DEB727970FB6F894DEBF0FBECDBF9C83ED
:102A30008B836D834E832F838D81882F90E0880F49
:102A4000991F880F991F880F991F8A838A81805C3C
:102A50000E947F1319820EC08981282F30E08B815C
:102A60009C81FC01E20FF31F80810E949C138981ED
:102A70008F5F89838981883078F38E816F810E948E
:102A8000E1148D810E949C1327960FB6F894DEBF47
:102A90000FBECDBFCF91DF910895DF93CF930F92FB
:102AA000CDB7DEB78983898182958F70882F90E0BA
:102AB0009C01220F331FC901880F991F880F991F8E
:102AC000820F931F982F89818F70890F0F90CF915C
:102AD000DF910895DF93CF930F92CDB7DEB789834F
:102AE00089819AE0692F0E943B1B882F90E0829594
:102AF0009295907F9827807F9827282F89819AE048
:102B0000692F0E943B1B892F822B0F90CF91DF9161
:102B10000895DF93CF93CDB7DEB70E94F715CF911D
:102B2000DF910895DF93CF9300D0CDB7DEB79A83BE
:102B300089830E940C1688E60E942C1680E00E9471
:102B40006016E981FA8180810E946A150E946016F0
:102B5000E981FA8181810E946A150E946016E981EB
:102B6000FA8182810E946A150E9460160E948A166C
:102B70000F900F90CF91DF910895DF93CF9300D006
:102B8000CDB7DEB79A8389830E940C1688E60E942F
:102B90002C1680E00E9460160E941C1688E60E9497
:102BA00044160E9477160E944D15E981FA818083B0
:102BB0000E941C1688E60E9444160E9477160E9406
:102BC0004D15E981FA8181830E941C1688E60E94D6
:102BD00044160E9477160E944D15E981FA8182837E
:102BE0000E948A160F900F90CF91DF910895DF9386
:102BF000CF93CDB7DEB7E0E2F0E080E28083E1E2A0
:102C0000F0E01082A6E5B0E0E6E5F0E080818460C7
:102C10008C93CF91DF910895DF93CF93CDB7DEB73B
:102C2000E6E5F0E084EA8083E6E5F0E08081882351
:102C3000DCF7CF91DF910895DF93CF93CDB7DEB767
:102C4000E6E5F0E084EA8083E6E5F0E08081882331
:102C5000DCF7CF91DF910895DF93CF930F92CDB73B
:102C6000DEB78983E3E2F0E08981880F8083E6E5BF
:102C7000F0E084E88083E6E5F0E080818823DCF7FB
:102C80000F90CF91DF910895DF93CF930F92CDB73F
:102C9000DEB78983E3E2F0E08981882F90E0880F36
:102CA000991F81608083E6E5F0E084E88083E6E5B3
:102CB000F0E080818823DCF70F90CF91DF910895B9
:102CC000DF93CF930F92CDB7DEB78983E3E2F0E0D5
:102CD00089818083E6E5F0E084E88083E6E5F0E042
:102CE00080818823DCF70F90CF91DF910895DF93E7
:102CF000CF93CDB7DEB7E6E5F0E084E88083E6E584
:102D0000F0E080818823DCF7E3E2F0E08081CF917E
:102D1000DF910895DF93CF93CDB7DEB7E6E5F0E01E
:102D200084E98083CF91DF910895DF93CF930F9251
:102D3000CDB7DEB78091E8001982882311F481E0D5
:102D4000898389818093E8000F90CF91DF91089566
:102D5000DF93CF93CDB7DEB710922201CF91DF91F1
:102D60000895DF93CF93CDB7DEB781E08093220142
:102D7000CF91DF910895DF93CF93CDB7DEB76A97F8
:102D80000FB6F894DEBF0FBECDBF0E947A170E9427
:102D9000FC17CE0142969E8B8D8BE9E1F1E0F88F16
:102DA000EF8BF3E0F98FEF89F88D00808F89988D94
:102DB0000196988F8F8BED89FE8900828D899E897F
:102DC00001969E8B8D8B998D9150998FE98DEE2375
:102DD00051F7CE0142960E949215198A188A1F86D1
:102DE0000E94AC1A0E941819998B888B1A8E8F85B5
:102DF000882311F4F1E0FA8F8A8D8F878889998969
:102E00006F850E94C919888999890E94CD1A80E02E
:102E100090E0A6E9B3E48B879C87AD87BE876B857E
:102E20007C858D859E8520E030E04AEF54E40E9449
:102E30001F02DC01CB018F839887A987BA876F8136
:102E4000788589859A8520E030E040E85FE30E943C
:102E5000250488232CF481E090E09E838D833FC07D
:102E60006F81788589859A8520E03FEF4FE757E4A9
:102E70000E94C50318164CF56B857C858D859E8553
:102E800020E030E040E251E40E941F02DC01CB016F
:102E9000BC01CD010E944900DC01CB019E838D83E2
:102EA0000FC088EC90E09C838B838B819C81019781
:102EB000F1F79C838B838D819E8101979E838D8307
:102EC0008D819E81009769F78BCF6F817885898589
:102ED0009A850E944900DC01CB019E838D838D8100
:102EE0009E819A83898389819A810197F1F79A83D8
:102EF000898376CFDF93CF93CDB7DEB70E941207D9
:102F00000E94FF0E0E947E0D0E94E3060E9489151A
:102F100083E065E041E00E94350783E066E041E040
:102F20000E94350783E067E041E00E94350783E0B7
:102F300065E040E00E94570883E066E040E00E94C0
:102F4000570883E067E040E00E94570889EE90E070
:102F500060E041E021E00E940D1581EF90E061E02A
:102F600041E021E00E940D1589EF90E062E041E030
:102F700021E00E940D1581E091E063E041E021E055
:102F80000E940D1589E091E064E041E021E00E949B
:102F90000D1581E191E065E041E021E00E940D1511
:102FA00080E062E00E948C0B25E936E180E0B90107
:102FB0000E94A50C80E00E94000C81E062E00E946B
:102FC0008C0B28EA36E181E0B9010E94A50C81E072
:102FD0000E94000C82E062E00E948C0B21EB36E143
:102FE00082E0B9010E94A50C82E00E94000C0E94C0
:102FF000B00DCF91DF910895DF93CF93CDB7DEB7BA
:103000006D970FB6F894DEBF0FBECDBF0E94B91307
:1030100081E061E00E94E11480E690E00E944114AA
:1030200082E061E00E94E11481E790E00E94411497
:103030001D8E79C08BE790E00E94411480E090E003
:10304000A6E1B3E4898F9A8FAB8FBC8F698D7A8D9F
:103050008B8D9C8D20E030E04AEF54E40E941F02EB
:10306000DC01CB018D8B9E8BAF8BB88F6D897E89F8
:103070008F89988D20E030E040E85FE30E942504CE
:1030800088232CF481E090E09C8B8B8B3FC06D8972
:103090007E898F89988D20E03FEF4FE757E40E94AB
:1030A000C50318164CF5698D7A8D8B8D9C8D20E0AB
:1030B00030E040E251E40E941F02DC01CB01BC0180
:1030C000CD010E944900DC01CB019C8B8B8B0FC092
:1030D00088EC90E09A8B898B89899A890197F1F71E
:1030E0009A8B898B8B899C8901979C8B8B8B8B8985
:1030F0009C89009769F714C06D897E898F89988DA6
:103100000E944900DC01CB019C8B8B8B8B899C89B5
:10311000988B8F878F8598890197F1F7988B8F8788
:103120008D8D8F5F8D8F8D8D863008F483CF8DE7E9
:1031300090E00E94411480E090E0A6E9B3E48B8720
:103140009C87AD87BE876B857C858D859E8520E0BD
:1031500030E04AEF54E40E941F02DC01CB018F8370
:103160009887A987BA876F81788589859A8520E0B5
:1031700030E040E85FE30E94250488232CF481E0DE
:1031800090E09E838D833FC06F81788589859A8585
:1031900020E03FEF4FE757E40E94C50318164CF5B7
:1031A0006B857C858D859E8520E030E040E251E492
:1031B0000E941F02DC01CB01BC01CD010E9449002D
:1031C000DC01CB019E838D830FC088EC90E09C8353
:1031D0008B838B819C810197F1F79C838B838D81FD
:1031E0009E8101979E838D838D819E81009769F7D3
:1031F00014C06F81788589859A850E944900DC0119
:10320000CB019E838D838D819E819A838983898161
:103210009A810197F1F79A8389830E94B9136D9679
:103220000FB6F894DEBF0FBECDBFCF91DF910895EA
:10323000DF93CF93CDB7DEB763970FB6F894DEBFB9
:103240000FBECDBF188A198A1A8A1B8A1F8686C0AC
:103250000E94870D9C0140E050E088899989AA89E5
:10326000BB89820F931FA41FB51F888B998BAA8BD4
:10327000BB8B80E090E0A0E0B0E48B879C87AD87BB
:10328000BE876B857C858D859E8520E030E04AEF8A
:1032900054E40E941F02DC01CB018F839887A98729
:1032A000BA876F81788589859A8520E030E040E88B
:1032B0005FE30E94250488232CF481E090E09E8344
:1032C0008D833FC06F81788589859A8520E03FEFA7
:1032D0004FE757E40E94C50318164CF56B857C85B3
:1032E0008D859E8520E030E040E251E40E941F027F
:1032F000DC01CB01BC01CD010E944900DC01CB0106
:103300009E838D830FC088EC90E09C838B838B81A0
:103310009C810197F1F79C838B838D819E8101971E
:103320009E838D838D819E81009769F714C06F8184
:10333000788589859A850E944900DC01CB019E83AE
:103340008D838D819E819A83898389819A8101975A
:10335000F1F79A8389838F858F5F8F878F858A3076
:1033600008F476CF88899989AA89BB892AE030E058
:1033700040E050E0BC01CD010E945B1BDA01C901B5
:1033800063960FB6F894DEBF0FBECDBFCF91DF912D
:103390000895DF93CF93CDB7DEB72C970FB6F8948F
:1033A000DEBF0FBECDBF9E838D836F830E94B91396
:1033B00081E061E00E94E11480912201882329F4D8
:1033C0008FE790E09C878B8704C082E890E09C8721
:1033D0008B878B859C850E9441148D819E81CC01B9
:1033E000A0E0B0E0BC01CD010E946A1486E490E048
:1033F0009C838B8380912201882329F484E690E0CA
:103400009A87898704C08CE890E09A8789878985A4
:103410009A859A83898381E066E00E94E1142D8178
:103420003E818B819C812817390720F483E00E941C
:103430009C130EC02D813E8189819A81821793074A
:1034400020F482E00E949C1303C084E00E949C133D
:1034500081E068E00E94E11418868F81882311F4CE
:1034600091E0988788850E949C1381E06AE00E9421
:10347000E1148091E800882321F085E00E949C13EC
:1034800004C085E890E00E94411481E06CE00E9455
:10349000E114809126018A3020F487E890E00E94B0
:1034A000411480912601882F90E0A0E0B0E0BC019B
:1034B000CD010E946A1489E890E00E944114809135
:1034C00025018A3020F487E890E00E944114809121
:1034D0002501882F90E0A0E0B0E0BC01CD010E9462
:1034E0006A1482E061E00E94E11480912301882344
:1034F00029F08BE890E00E94411425C08091E800FB
:10350000882329F48CE990E00E9441141CC02D818D
:103510003E818B819C812817390728F48DEA90E041
:103520000E94411410C02D813E8189819A818217A9
:10353000930728F48EEB90E00E94411404C08FECB6
:1035400090E00E9441142C960FB6F894DEBF0FBE97
:10355000CDBFCF91DF910895DF93CF93CDB7DEB785
:1035600084E291E00E94BD15809126018C3021F407
:1035700080912501882341F080912601853141F415
:1035800080912501882321F481E08093230102C0EA
:1035900010922301CF91DF910895DF93CF93CDB7A0
:1035A000DEB728970FB6F894DEBF0FBECDBF9E835F
:1035B0008D8386E490E09C838B8380912201882315
:1035C00029F484E690E098878F8304C08CE890E02B
:1035D00098878F838F8198859A83898383E065E0BC
:1035E00040E00E94570883E066E040E00E945708F0
:1035F00083E067E040E00E9457080E94FB0680914C
:103600002301882351F48D819E818233910528F016
:103610008D819E81893C910560F083E067E041E007
:103620000E9457088091E8008823E1F00E94EF068D
:1036300019C02D813E818B819C812817390738F074
:103640002D813E8189819A818217930730F483E02E
:1036500066E041E00E94570805C083E065E041E074
:103660000E94570828960FB6F894DEBF0FBECDBF54
:10367000CF91DF910895991B79E004C0991F9617A7
:1036800008F0961B881F7A95C9F780950895AA1BA4
:10369000BB1B51E107C0AA1FBB1FA617B70710F03D
:1036A000A61BB70B881F991F5A95A9F7809590956F
:1036B000BC01CD010895A1E21A2EAA1BBB1BFD017E
:1036C0000DC0AA1FBB1FEE1FFF1FA217B307E40701
:1036D000F50720F0A21BB30BE40BF50B661F771F59
:1036E000881F991F1A9469F7609570958095909539
:1036F0009B01AC01BD01CF0108952F923F924F92E3
:103700005F926F927F928F929F92AF92BF92CF9271
:10371000DF92EF92FF920F931F93CF93DF93CDB77A
:10372000DEB7CA1BDB0B0FB6F894DEBF0FBECDBFF2
:1037300009942A88398848885F846E847D848C84C3
:103740009B84AA84B984C884DF80EE80FD800C81CC
:103750001B81AA81B981CE0FD11D0FB6F894DEBFAF
:0C3760000FBECDBFED010895F894FFCF1F
:10376C0020476C75636F7365204D6F6E69746F7253
:10377C0000426F6F74696E67205B003D005D004610
:10378C003A00503A00200030003A00212120444FEA
:10379C0053452054494D452021212000414C415294
:1037AC004D3A204F4646202020202020004C4F57D9
:1037BC00212054616B652053756761722000484964
:1037CC004748214472696E6B205761746572004ED4
:1037DC004F524D414C2028476F6F64292020200008
:1037EC00000000000000000001000A1F1F0E040072
:1037FC0000000A15110A040000040E150404040448
:10380C000004040404150E04000004021F0204004A
:0C381C0000040E0E0E1F00040000000A45
:00000001FF
